{
  "abi": [
    {
      "type": "constructor",
      "inputs": [
        {
          "name": "_reputationManager",
          "type": "address",
          "internalType": "address"
        },
        {
          "name": "_collateralToken",
          "type": "address",
          "internalType": "address"
        }
      ],
      "stateMutability": "nonpayable"
    },
    {
      "type": "function",
      "name": "allMarkets",
      "inputs": [
        {
          "name": "",
          "type": "uint256",
          "internalType": "uint256"
        }
      ],
      "outputs": [
        {
          "name": "",
          "type": "address",
          "internalType": "address"
        }
      ],
      "stateMutability": "view"
    },
    {
      "type": "function",
      "name": "collateralToken",
      "inputs": [],
      "outputs": [
        {
          "name": "",
          "type": "address",
          "internalType": "address"
        }
      ],
      "stateMutability": "view"
    },
    {
      "type": "function",
      "name": "createMarket",
      "inputs": [
        {
          "name": "_question",
          "type": "string",
          "internalType": "string"
        }
      ],
      "outputs": [
        {
          "name": "",
          "type": "address",
          "internalType": "address"
        }
      ],
      "stateMutability": "nonpayable"
    },
    {
      "type": "function",
      "name": "marketCount",
      "inputs": [],
      "outputs": [
        {
          "name": "",
          "type": "uint256",
          "internalType": "uint256"
        }
      ],
      "stateMutability": "view"
    },
    {
      "type": "function",
      "name": "owner",
      "inputs": [],
      "outputs": [
        {
          "name": "",
          "type": "address",
          "internalType": "address"
        }
      ],
      "stateMutability": "view"
    },
    {
      "type": "function",
      "name": "renounceOwnership",
      "inputs": [],
      "outputs": [],
      "stateMutability": "nonpayable"
    },
    {
      "type": "function",
      "name": "reputationManager",
      "inputs": [],
      "outputs": [
        {
          "name": "",
          "type": "address",
          "internalType": "address"
        }
      ],
      "stateMutability": "view"
    },
    {
      "type": "function",
      "name": "transferOwnership",
      "inputs": [
        {
          "name": "newOwner",
          "type": "address",
          "internalType": "address"
        }
      ],
      "outputs": [],
      "stateMutability": "nonpayable"
    },
    {
      "type": "event",
      "name": "MarketCreated",
      "inputs": [
        {
          "name": "marketAddress",
          "type": "address",
          "indexed": true,
          "internalType": "address"
        },
        {
          "name": "creator",
          "type": "address",
          "indexed": true,
          "internalType": "address"
        },
        {
          "name": "question",
          "type": "string",
          "indexed": false,
          "internalType": "string"
        }
      ],
      "anonymous": false
    },
    {
      "type": "event",
      "name": "OwnershipTransferred",
      "inputs": [
        {
          "name": "previousOwner",
          "type": "address",
          "indexed": true,
          "internalType": "address"
        },
        {
          "name": "newOwner",
          "type": "address",
          "indexed": true,
          "internalType": "address"
        }
      ],
      "anonymous": false
    },
    {
      "type": "error",
      "name": "OwnableInvalidOwner",
      "inputs": [
        {
          "name": "owner",
          "type": "address",
          "internalType": "address"
        }
      ]
    },
    {
      "type": "error",
      "name": "OwnableUnauthorizedAccount",
      "inputs": [
        {
          "name": "account",
          "type": "address",
          "internalType": "address"
        }
      ]
    }
  ],
  "bytecode": {
    "object": "0x60c060405234801561000f575f80fd5b5060405161450638038061450683398181016040528101906100319190610240565b335f73ffffffffffffffffffffffffffffffffffffffff168173ffffffffffffffffffffffffffffffffffffffff16036100a2575f6040517f1e4fbdf7000000000000000000000000000000000000000000000000000000008152600401610099919061028d565b60405180910390fd5b6100b18161012160201b60201c565b508173ffffffffffffffffffffffffffffffffffffffff1660808173ffffffffffffffffffffffffffffffffffffffff16815250508073ffffffffffffffffffffffffffffffffffffffff1660a08173ffffffffffffffffffffffffffffffffffffffff168152505050506102a6565b5f805f9054906101000a900473ffffffffffffffffffffffffffffffffffffffff169050815f806101000a81548173ffffffffffffffffffffffffffffffffffffffff021916908373ffffffffffffffffffffffffffffffffffffffff1602179055508173ffffffffffffffffffffffffffffffffffffffff168173ffffffffffffffffffffffffffffffffffffffff167f8be0079c531659141344cd1fd0a4f28419497f9722a3daafe3b4186f6b6457e060405160405180910390a35050565b5f80fd5b5f73ffffffffffffffffffffffffffffffffffffffff82169050919050565b5f61020f826101e6565b9050919050565b61021f81610205565b8114610229575f80fd5b50565b5f8151905061023a81610216565b92915050565b5f8060408385031215610256576102556101e2565b5b5f6102638582860161022c565b92505060206102748582860161022c565b9150509250929050565b61028781610205565b82525050565b5f6020820190506102a05f83018461027e565b92915050565b60805160a05161422a6102dc5f395f81816101c7015261046101525f81816101e8015281816103090152610403015261422a5ff3fe608060405234801561000f575f80fd5b5060043610610086575f3560e01c80638da5cb5b116100595780638da5cb5b14610112578063b2016bd414610130578063ec9790821461014e578063f2fde38b1461016c57610086565b806352d84d1e1461008a57806354888f55146100ba5780636b868afb146100ea578063715018a614610108575b5f80fd5b6100a4600480360381019061009f91906106aa565b610188565b6040516100b19190610714565b60405180910390f35b6100d460048036038101906100cf919061078e565b6101c3565b6040516100e19190610714565b60405180910390f35b6100f2610401565b6040516100ff9190610714565b60405180910390f35b610110610425565b005b61011a610438565b6040516101279190610714565b60405180910390f35b61013861045f565b6040516101459190610714565b60405180910390f35b610156610483565b60405161016391906107e8565b60405180910390f35b6101866004803603810190610181919061082b565b61048f565b005b60018181548110610197575f80fd5b905f5260205f20015f915054906101000a900473ffffffffffffffffffffffffffffffffffffffff1681565b5f807f00000000000000000000000000000000000000000000000000000000000000007f000000000000000000000000000000000000000000000000000000000000000060405161021390610662565b61021e929190610856565b604051809103905ff080158015610237573d5f803e3d5ffd5b5090508073ffffffffffffffffffffffffffffffffffffffff1663f2fde38b61025e610438565b6040518263ffffffff1660e01b815260040161027a9190610714565b5f604051808303815f87803b158015610291575f80fd5b505af11580156102a3573d5f803e3d5ffd5b50505050600181908060018154018082558091505060019003905f5260205f20015f9091909190916101000a81548173ffffffffffffffffffffffffffffffffffffffff021916908373ffffffffffffffffffffffffffffffffffffffff1602179055507f000000000000000000000000000000000000000000000000000000000000000073ffffffffffffffffffffffffffffffffffffffff166399fc65d48260016040518363ffffffff1660e01b8152600401610363929190610897565b5f604051808303815f87803b15801561037a575f80fd5b505af115801561038c573d5f803e3d5ffd5b505050503373ffffffffffffffffffffffffffffffffffffffff168173ffffffffffffffffffffffffffffffffffffffff167f399415246711dab8a1b129dbd52f5a8f33ccd156f8bbcb481b900f33cfb3677986866040516103ef929190610918565b60405180910390a38091505092915050565b7f000000000000000000000000000000000000000000000000000000000000000081565b61042d610513565b6104365f61059a565b565b5f805f9054906101000a900473ffffffffffffffffffffffffffffffffffffffff16905090565b7f000000000000000000000000000000000000000000000000000000000000000081565b5f600180549050905090565b610497610513565b5f73ffffffffffffffffffffffffffffffffffffffff168173ffffffffffffffffffffffffffffffffffffffff1603610507575f6040517f1e4fbdf70000000000000000000000000000000000000000000000000000000081526004016104fe9190610714565b60405180910390fd5b6105108161059a565b50565b61051b61065b565b73ffffffffffffffffffffffffffffffffffffffff16610539610438565b73ffffffffffffffffffffffffffffffffffffffff16146105985761055c61065b565b6040517f118cdaa700000000000000000000000000000000000000000000000000000000815260040161058f9190610714565b60405180910390fd5b565b5f805f9054906101000a900473ffffffffffffffffffffffffffffffffffffffff169050815f806101000a81548173ffffffffffffffffffffffffffffffffffffffff021916908373ffffffffffffffffffffffffffffffffffffffff1602179055508173ffffffffffffffffffffffffffffffffffffffff168173ffffffffffffffffffffffffffffffffffffffff167f8be0079c531659141344cd1fd0a4f28419497f9722a3daafe3b4186f6b6457e060405160405180910390a35050565b5f33905090565b6138ba8061093b83390190565b5f80fd5b5f80fd5b5f819050919050565b61068981610677565b8114610693575f80fd5b50565b5f813590506106a481610680565b92915050565b5f602082840312156106bf576106be61066f565b5b5f6106cc84828501610696565b91505092915050565b5f73ffffffffffffffffffffffffffffffffffffffff82169050919050565b5f6106fe826106d5565b9050919050565b61070e816106f4565b82525050565b5f6020820190506107275f830184610705565b92915050565b5f80fd5b5f80fd5b5f80fd5b5f8083601f84011261074e5761074d61072d565b5b8235905067ffffffffffffffff81111561076b5761076a610731565b5b60208301915083600182028301111561078757610786610735565b5b9250929050565b5f80602083850312156107a4576107a361066f565b5b5f83013567ffffffffffffffff8111156107c1576107c0610673565b5b6107cd85828601610739565b92509250509250929050565b6107e281610677565b82525050565b5f6020820190506107fb5f8301846107d9565b92915050565b61080a816106f4565b8114610814575f80fd5b50565b5f8135905061082581610801565b92915050565b5f602082840312156108405761083f61066f565b5b5f61084d84828501610817565b91505092915050565b5f6040820190506108695f830185610705565b6108766020830184610705565b9392505050565b5f8115159050919050565b6108918161087d565b82525050565b5f6040820190506108aa5f830185610705565b6108b76020830184610888565b9392505050565b5f82825260208201905092915050565b828183375f83830152505050565b5f601f19601f8301169050919050565b5f6108f783856108be565b93506109048385846108ce565b61090d836108dc565b840190509392505050565b5f6020820190508181035f8301526109318184866108ec565b9050939250505056fe60c06040525f600360146101000a81548160ff021916908315150217905550348015610029575f80fd5b506040516138ba3803806138ba833981810160405281019061004b9190610354565b3360405180602001604052805f81525061006a816101ba60201b60201c565b505f73ffffffffffffffffffffffffffffffffffffffff168173ffffffffffffffffffffffffffffffffffffffff16036100db575f6040517f1e4fbdf70000000000000000000000000000000000000000000000000000000081526004016100d291906103a1565b60405180910390fd5b6100ea816101cd60201b60201c565b508173ffffffffffffffffffffffffffffffffffffffff1660808173ffffffffffffffffffffffffffffffffffffffff16815250508073ffffffffffffffffffffffffffffffffffffffff1660a08173ffffffffffffffffffffffffffffffffffffffff1681525050600267ffffffffffffffff81111561016e5761016d6103ba565b5b60405190808252806020026020018201604052801561019c5781602001602082028036833780820191505090505b50600590805190602001906101b2929190610290565b5050506106c3565b80600290816101c991906105f4565b5050565b5f60035f9054906101000a900473ffffffffffffffffffffffffffffffffffffffff1690508160035f6101000a81548173ffffffffffffffffffffffffffffffffffffffff021916908373ffffffffffffffffffffffffffffffffffffffff1602179055508173ffffffffffffffffffffffffffffffffffffffff168173ffffffffffffffffffffffffffffffffffffffff167f8be0079c531659141344cd1fd0a4f28419497f9722a3daafe3b4186f6b6457e060405160405180910390a35050565b828054828255905f5260205f209081019282156102ca579160200282015b828111156102c95782518255916020019190600101906102ae565b5b5090506102d791906102db565b5090565b5b808211156102f2575f815f9055506001016102dc565b5090565b5f80fd5b5f73ffffffffffffffffffffffffffffffffffffffff82169050919050565b5f610323826102fa565b9050919050565b61033381610319565b811461033d575f80fd5b50565b5f8151905061034e8161032a565b92915050565b5f806040838503121561036a576103696102f6565b5b5f61037785828601610340565b925050602061038885828601610340565b9150509250929050565b61039b81610319565b82525050565b5f6020820190506103b45f830184610392565b92915050565b7f4e487b71000000000000000000000000000000000000000000000000000000005f52604160045260245ffd5b5f81519050919050565b7f4e487b71000000000000000000000000000000000000000000000000000000005f52602260045260245ffd5b5f600282049050600182168061043557607f821691505b602082108103610448576104476103f1565b5b50919050565b5f819050815f5260205f209050919050565b5f6020601f8301049050919050565b5f82821b905092915050565b5f600883026104aa7fffffffffffffffffffffffffffffffffffffffffffffffffffffffffffffffff8261046f565b6104b4868361046f565b95508019841693508086168417925050509392505050565b5f819050919050565b5f819050919050565b5f6104f86104f36104ee846104cc565b6104d5565b6104cc565b9050919050565b5f819050919050565b610511836104de565b61052561051d826104ff565b84845461047b565b825550505050565b5f90565b61053961052d565b610544818484610508565b505050565b5b818110156105675761055c5f82610531565b60018101905061054a565b5050565b601f8211156105ac5761057d8161044e565b61058684610460565b81016020851015610595578190505b6105a96105a185610460565b830182610549565b50505b505050565b5f82821c905092915050565b5f6105cc5f19846008026105b1565b1980831691505092915050565b5f6105e483836105bd565b9150826002028217905092915050565b6105fd826103e7565b67ffffffffffffffff811115610616576106156103ba565b5b610620825461041e565b61062b82828561056b565b5f60209050601f83116001811461065c575f841561064a578287015190505b61065485826105d9565b8655506106bb565b601f19841661066a8661044e565b5f5b828110156106915784890151825560018201915060208501945060208101905061066c565b868310156106ae57848901516106aa601f8916826105bd565b8355505b6001600288020188555050505b505050505050565b60805160a0516131b36107075f395f818161089801528181610c460152610d7301525f8181610a0201528181610af601528181610baa0152610e9901526131b35ff3fe608060405234801561000f575f80fd5b5060043610610155575f3560e01c80639b34ae03116100c1578063d79875eb1161007a578063d79875eb1461039f578063dbb3f537146103bb578063e2ae5524146103d9578063e985e9c514610409578063f242432a14610439578063f2fde38b1461045557610155565b80639b34ae03146102f1578063a22cb4651461030f578063a7c18c141461032b578063b2016bd41461035b578063be040fb014610379578063d6febde81461038357610155565b80635f88a61b116101135780635f88a61b146102515780636b868afb1461026f5780636dfbfec01461028d578063715018a6146102ab5780637d418a07146102b55780638da5cb5b146102d357610155565b8062fdd58e1461015957806301ffc9a7146101895780630e89341c146101b95780632eb2c2d6146101e95780634e1273f4146102055780634f896d4f14610235575b5f80fd5b610173600480360381019061016e91906120a9565b610471565b60405161018091906120f6565b60405180910390f35b6101a3600480360381019061019e9190612164565b6104c6565b6040516101b091906121a9565b60405180910390f35b6101d360048036038101906101ce91906121c2565b6105a7565b6040516101e0919061225d565b60405180910390f35b61020360048036038101906101fe919061246d565b610639565b005b61021f600480360381019061021a91906125f8565b6106e0565b60405161022c9190612725565b60405180910390f35b61024f600480360381019061024a91906121c2565b6107e7565b005b610259610891565b60405161026691906120f6565b60405180910390f35b610277610896565b60405161028491906127a0565b60405180910390f35b6102956108ba565b6040516102a291906120f6565b60405180910390f35b6102b36108be565b005b6102bd6108d1565b6040516102ca91906120f6565b60405180910390f35b6102db6108d6565b6040516102e891906127c8565b60405180910390f35b6102f96108fe565b60405161030691906120f6565b60405180910390f35b6103296004803603810190610324919061280b565b610904565b005b61034560048036038101906103409190612849565b61091a565b60405161035291906120f6565b60405180910390f35b610363610a00565b60405161037091906128a7565b60405180910390f35b610381610a24565b005b61039d60048036038101906103989190612849565b610d21565b005b6103b960048036038101906103b49190612849565b610fd7565b005b6103c3610fdb565b6040516103d091906121a9565b60405180910390f35b6103f360048036038101906103ee91906121c2565b610fee565b60405161040091906120f6565b60405180910390f35b610423600480360381019061041e91906128c0565b61100e565b60405161043091906121a9565b60405180910390f35b610453600480360381019061044e91906128fe565b61109c565b005b61046f600480360381019061046a9190612991565b611143565b005b5f805f8381526020019081526020015f205f8473ffffffffffffffffffffffffffffffffffffffff1673ffffffffffffffffffffffffffffffffffffffff1681526020019081526020015f2054905092915050565b5f7fd9b67a26000000000000000000000000000000000000000000000000000000007bffffffffffffffffffffffffffffffffffffffffffffffffffffffff1916827bffffffffffffffffffffffffffffffffffffffffffffffffffffffff1916148061059057507f0e89341c000000000000000000000000000000000000000000000000000000007bffffffffffffffffffffffffffffffffffffffffffffffffffffffff1916827bffffffffffffffffffffffffffffffffffffffffffffffffffffffff1916145b806105a0575061059f826111c7565b5b9050919050565b6060600280546105b6906129e9565b80601f01602080910402602001604051908101604052809291908181526020018280546105e2906129e9565b801561062d5780601f106106045761010080835404028352916020019161062d565b820191905f5260205f20905b81548152906001019060200180831161061057829003601f168201915b50505050509050919050565b5f610642611230565b90508073ffffffffffffffffffffffffffffffffffffffff168673ffffffffffffffffffffffffffffffffffffffff16141580156106875750610685868261100e565b155b156106cb5780866040517fe237d9220000000000000000000000000000000000000000000000000000000081526004016106c2929190612a19565b60405180910390fd5b6106d88686868686611237565b505050505050565b6060815183511461072c57815183516040517f5b059991000000000000000000000000000000000000000000000000000000008152600401610723929190612a40565b60405180910390fd5b5f835167ffffffffffffffff81111561074857610747612281565b5b6040519080825280602002602001820160405280156107765781602001602082028036833780820191505090505b5090505f5b84518110156107dc576107b261079a828761132b90919063ffffffff16565b6107ad838761133e90919063ffffffff16565b610471565b8282815181106107c5576107c4612a67565b5b60200260200101818152505080600101905061077b565b508091505092915050565b6107ef611351565b600360149054906101000a900460ff161561083f576040517f08c379a000000000000000000000000000000000000000000000000000000000815260040161083690612ade565b60405180910390fd5b6001600360146101000a81548160ff02191690831515021790555080600481905550807f93608ecbcf057462da63f5aef413ce7f78c5e1b3bb51859d77a40845ece2bfc360405160405180910390a250565b600a81565b7f000000000000000000000000000000000000000000000000000000000000000081565b5f81565b6108c6611351565b6108cf5f6113d8565b565b600181565b5f60035f9054906101000a900473ffffffffffffffffffffffffffffffffffffffff16905090565b60045481565b61091661090f611230565b838361149b565b5050565b5f6002831061095e576040517f08c379a000000000000000000000000000000000000000000000000000000000815260040161095590612b46565b60405180910390fd5b5f6005848154811061097357610972612a67565b5b905f5260205f20015490505f600585600161098e9190612b91565b8154811061099f5761099e612a67565b5b905f5260205f20015490505f821480156109b857505f81145b156109c75783925050506109fa565b6001826109d49190612bc4565b82826109e09190612bc4565b856109eb9190612bf7565b6109f59190612c65565b925050505b92915050565b7f000000000000000000000000000000000000000000000000000000000000000081565b600360149054906101000a900460ff16610a73576040517f08c379a0000000000000000000000000000000000000000000000000000000008152600401610a6a90612cdf565b60405180910390fd5b5f610a8033600454610471565b90505f8111610ac4576040517f08c379a0000000000000000000000000000000000000000000000000000000008152600401610abb90612d47565b60405180910390fd5b610ad13360045483611604565b5f600560045481548110610ae857610ae7612a67565b5b905f5260205f20015490505f7f000000000000000000000000000000000000000000000000000000000000000073ffffffffffffffffffffffffffffffffffffffff166370a08231306040518263ffffffff1660e01b8152600401610b4d91906127c8565b602060405180830381865afa158015610b68573d5f803e3d5ffd5b505050506040513d601f19601f82011682018060405250810190610b8c9190612d79565b90505f828483610b9c9190612bf7565b610ba69190612c65565b90507f000000000000000000000000000000000000000000000000000000000000000073ffffffffffffffffffffffffffffffffffffffff1663a9059cbb33836040518363ffffffff1660e01b8152600401610c03929190612da4565b6020604051808303815f875af1158015610c1f573d5f803e3d5ffd5b505050506040513d601f19601f82011682018060405250810190610c439190612ddf565b507f000000000000000000000000000000000000000000000000000000000000000073ffffffffffffffffffffffffffffffffffffffff16636a08b51133600a6040518363ffffffff1660e01b8152600401610ca0929190612e22565b5f604051808303815f87803b158015610cb7575f80fd5b505af1158015610cc9573d5f803e3d5ffd5b505050503373ffffffffffffffffffffffffffffffffffffffff167f9ea0c06abf8f39bb42cdb46f698aa754f2517428073931b65b7e021b448f424a82604051610d1391906120f6565b60405180910390a250505050565b600360149054906101000a900460ff1615610d71576040517f08c379a0000000000000000000000000000000000000000000000000000000008152600401610d6890612e93565b60405180910390fd5b7f000000000000000000000000000000000000000000000000000000000000000073ffffffffffffffffffffffffffffffffffffffff1663163f7522336040518263ffffffff1660e01b8152600401610dca91906127c8565b602060405180830381865afa158015610de5573d5f803e3d5ffd5b505050506040513d601f19601f82011682018060405250810190610e099190612ddf565b610e48576040517f08c379a0000000000000000000000000000000000000000000000000000000008152600401610e3f90612efb565b60405180910390fd5b5f8111610e8a576040517f08c379a0000000000000000000000000000000000000000000000000000000008152600401610e8190612f63565b60405180910390fd5b5f610e95838361091a565b90507f000000000000000000000000000000000000000000000000000000000000000073ffffffffffffffffffffffffffffffffffffffff166323b872dd3330846040518463ffffffff1660e01b8152600401610ef493929190612f81565b6020604051808303815f875af1158015610f10573d5f803e3d5ffd5b505050506040513d601f19601f82011682018060405250810190610f349190612ddf565b508160058481548110610f4a57610f49612a67565b5b905f5260205f20015f828254610f609190612bc4565b92505081905550610f8133848460405180602001604052805f8152506116a6565b823373ffffffffffffffffffffffffffffffffffffffff167f0ea2cc1a2a0fcfecef8b5ff9be41f8c0ca3770265a060b00de53118f88c91dfa8484604051610fca929190612a40565b60405180910390a3505050565b5050565b600360149054906101000a900460ff1681565b60058181548110610ffd575f80fd5b905f5260205f20015f915090505481565b5f60015f8473ffffffffffffffffffffffffffffffffffffffff1673ffffffffffffffffffffffffffffffffffffffff1681526020019081526020015f205f8373ffffffffffffffffffffffffffffffffffffffff1673ffffffffffffffffffffffffffffffffffffffff1681526020019081526020015f205f9054906101000a900460ff16905092915050565b5f6110a5611230565b90508073ffffffffffffffffffffffffffffffffffffffff168673ffffffffffffffffffffffffffffffffffffffff16141580156110ea57506110e8868261100e565b155b1561112e5780866040517fe237d922000000000000000000000000000000000000000000000000000000008152600401611125929190612a19565b60405180910390fd5b61113b868686868661173b565b505050505050565b61114b611351565b5f73ffffffffffffffffffffffffffffffffffffffff168173ffffffffffffffffffffffffffffffffffffffff16036111bb575f6040517f1e4fbdf70000000000000000000000000000000000000000000000000000000081526004016111b291906127c8565b60405180910390fd5b6111c4816113d8565b50565b5f7f01ffc9a7000000000000000000000000000000000000000000000000000000007bffffffffffffffffffffffffffffffffffffffffffffffffffffffff1916827bffffffffffffffffffffffffffffffffffffffffffffffffffffffff1916149050919050565b5f33905090565b5f73ffffffffffffffffffffffffffffffffffffffff168473ffffffffffffffffffffffffffffffffffffffff16036112a7575f6040517f57f447ce00000000000000000000000000000000000000000000000000000000815260040161129e91906127c8565b60405180910390fd5b5f73ffffffffffffffffffffffffffffffffffffffff168573ffffffffffffffffffffffffffffffffffffffff1603611317575f6040517f01a8351400000000000000000000000000000000000000000000000000000000815260040161130e91906127c8565b60405180910390fd5b6113248585858585611841565b5050505050565b5f60208202602084010151905092915050565b5f60208202602084010151905092915050565b611359611230565b73ffffffffffffffffffffffffffffffffffffffff166113776108d6565b73ffffffffffffffffffffffffffffffffffffffff16146113d65761139a611230565b6040517f118cdaa70000000000000000000000000000000000000000000000000000000081526004016113cd91906127c8565b60405180910390fd5b565b5f60035f9054906101000a900473ffffffffffffffffffffffffffffffffffffffff1690508160035f6101000a81548173ffffffffffffffffffffffffffffffffffffffff021916908373ffffffffffffffffffffffffffffffffffffffff1602179055508173ffffffffffffffffffffffffffffffffffffffff168173ffffffffffffffffffffffffffffffffffffffff167f8be0079c531659141344cd1fd0a4f28419497f9722a3daafe3b4186f6b6457e060405160405180910390a35050565b5f73ffffffffffffffffffffffffffffffffffffffff168273ffffffffffffffffffffffffffffffffffffffff160361150b575f6040517fced3e10000000000000000000000000000000000000000000000000000000000815260040161150291906127c8565b60405180910390fd5b8060015f8573ffffffffffffffffffffffffffffffffffffffff1673ffffffffffffffffffffffffffffffffffffffff1681526020019081526020015f205f8473ffffffffffffffffffffffffffffffffffffffff1673ffffffffffffffffffffffffffffffffffffffff1681526020019081526020015f205f6101000a81548160ff0219169083151502179055508173ffffffffffffffffffffffffffffffffffffffff168373ffffffffffffffffffffffffffffffffffffffff167f17307eab39ab6107e8899845ad3d59bd9653f200f220920489ca2b5937696c31836040516115f791906121a9565b60405180910390a3505050565b5f73ffffffffffffffffffffffffffffffffffffffff168373ffffffffffffffffffffffffffffffffffffffff1603611674575f6040517f01a8351400000000000000000000000000000000000000000000000000000000815260040161166b91906127c8565b60405180910390fd5b5f8061168084846118ed565b9150915061169f855f848460405180602001604052805f815250611841565b5050505050565b5f73ffffffffffffffffffffffffffffffffffffffff168473ffffffffffffffffffffffffffffffffffffffff1603611716575f6040517f57f447ce00000000000000000000000000000000000000000000000000000000815260040161170d91906127c8565b60405180910390fd5b5f8061172285856118ed565b915091506117335f87848487611841565b505050505050565b5f73ffffffffffffffffffffffffffffffffffffffff168473ffffffffffffffffffffffffffffffffffffffff16036117ab575f6040517f57f447ce0000000000000000000000000000000000000000000000000000000081526004016117a291906127c8565b60405180910390fd5b5f73ffffffffffffffffffffffffffffffffffffffff168573ffffffffffffffffffffffffffffffffffffffff160361181b575f6040517f01a8351400000000000000000000000000000000000000000000000000000000815260040161181291906127c8565b60405180910390fd5b5f8061182785856118ed565b915091506118388787848487611841565b50505050505050565b61184d8585858561191d565b5f73ffffffffffffffffffffffffffffffffffffffff168473ffffffffffffffffffffffffffffffffffffffff16146118e6575f611889611230565b905060018451036118d5575f6118a85f8661133e90919063ffffffff16565b90505f6118be5f8661133e90919063ffffffff16565b90506118ce838989858589611cad565b50506118e4565b6118e3818787878787611e5c565b5b505b5050505050565b60608060405191506001825283602083015260408201905060018152826020820152604081016040529250929050565b805182511461196757815181516040517f5b05999100000000000000000000000000000000000000000000000000000000815260040161195e929190612a40565b60405180910390fd5b5f611970611230565b90505f5b8351811015611b6c575f611991828661133e90919063ffffffff16565b90505f6119a7838661133e90919063ffffffff16565b90505f73ffffffffffffffffffffffffffffffffffffffff168873ffffffffffffffffffffffffffffffffffffffff1614611aca575f805f8481526020019081526020015f205f8a73ffffffffffffffffffffffffffffffffffffffff1673ffffffffffffffffffffffffffffffffffffffff1681526020019081526020015f2054905081811015611a7657888183856040517f03dee4c5000000000000000000000000000000000000000000000000000000008152600401611a6d9493929190612fb6565b60405180910390fd5b8181035f808581526020019081526020015f205f8b73ffffffffffffffffffffffffffffffffffffffff1673ffffffffffffffffffffffffffffffffffffffff1681526020019081526020015f2081905550505b5f73ffffffffffffffffffffffffffffffffffffffff168773ffffffffffffffffffffffffffffffffffffffff1614611b5f57805f808481526020019081526020015f205f8973ffffffffffffffffffffffffffffffffffffffff1673ffffffffffffffffffffffffffffffffffffffff1681526020019081526020015f205f828254611b579190612bc4565b925050819055505b5050806001019050611974565b506001835103611c27575f611b8a5f8561133e90919063ffffffff16565b90505f611ba05f8561133e90919063ffffffff16565b90508573ffffffffffffffffffffffffffffffffffffffff168773ffffffffffffffffffffffffffffffffffffffff168473ffffffffffffffffffffffffffffffffffffffff167fc3d58168c5ae7397731d063d5bbf3d657854427343f4c083240f7aacaa2d0f628585604051611c18929190612a40565b60405180910390a45050611ca6565b8373ffffffffffffffffffffffffffffffffffffffff168573ffffffffffffffffffffffffffffffffffffffff168273ffffffffffffffffffffffffffffffffffffffff167f4a39dc06d4c0dbc64b70af90fd698a233a518aa5d07e595d983b8c0526c8f7fb8686604051611c9d929190612ff9565b60405180910390a45b5050505050565b5f8473ffffffffffffffffffffffffffffffffffffffff163b1115611e54578373ffffffffffffffffffffffffffffffffffffffff1663f23a6e6187878686866040518663ffffffff1660e01b8152600401611d0d959493929190613080565b6020604051808303815f875af1925050508015611d4857506040513d601f19601f82011682018060405250810190611d4591906130ec565b60015b611dc9573d805f8114611d76576040519150601f19603f3d011682016040523d82523d5f602084013e611d7b565b606091505b505f815103611dc157846040517f57f447ce000000000000000000000000000000000000000000000000000000008152600401611db891906127c8565b60405180910390fd5b805160208201fd5b63f23a6e6160e01b7bffffffffffffffffffffffffffffffffffffffffffffffffffffffff1916817bffffffffffffffffffffffffffffffffffffffffffffffffffffffff191614611e5257846040517f57f447ce000000000000000000000000000000000000000000000000000000008152600401611e4991906127c8565b60405180910390fd5b505b505050505050565b5f8473ffffffffffffffffffffffffffffffffffffffff163b1115612003578373ffffffffffffffffffffffffffffffffffffffff1663bc197c8187878686866040518663ffffffff1660e01b8152600401611ebc959493929190613117565b6020604051808303815f875af1925050508015611ef757506040513d601f19601f82011682018060405250810190611ef491906130ec565b60015b611f78573d805f8114611f25576040519150601f19603f3d011682016040523d82523d5f602084013e611f2a565b606091505b505f815103611f7057846040517f57f447ce000000000000000000000000000000000000000000000000000000008152600401611f6791906127c8565b60405180910390fd5b805160208201fd5b63bc197c8160e01b7bffffffffffffffffffffffffffffffffffffffffffffffffffffffff1916817bffffffffffffffffffffffffffffffffffffffffffffffffffffffff19161461200157846040517f57f447ce000000000000000000000000000000000000000000000000000000008152600401611ff891906127c8565b60405180910390fd5b505b505050505050565b5f604051905090565b5f80fd5b5f80fd5b5f73ffffffffffffffffffffffffffffffffffffffff82169050919050565b5f6120458261201c565b9050919050565b6120558161203b565b811461205f575f80fd5b50565b5f813590506120708161204c565b92915050565b5f819050919050565b61208881612076565b8114612092575f80fd5b50565b5f813590506120a38161207f565b92915050565b5f80604083850312156120bf576120be612014565b5b5f6120cc85828601612062565b92505060206120dd85828601612095565b9150509250929050565b6120f081612076565b82525050565b5f6020820190506121095f8301846120e7565b92915050565b5f7fffffffff0000000000000000000000000000000000000000000000000000000082169050919050565b6121438161210f565b811461214d575f80fd5b50565b5f8135905061215e8161213a565b92915050565b5f6020828403121561217957612178612014565b5b5f61218684828501612150565b91505092915050565b5f8115159050919050565b6121a38161218f565b82525050565b5f6020820190506121bc5f83018461219a565b92915050565b5f602082840312156121d7576121d6612014565b5b5f6121e484828501612095565b91505092915050565b5f81519050919050565b5f82825260208201905092915050565b8281835e5f83830152505050565b5f601f19601f8301169050919050565b5f61222f826121ed565b61223981856121f7565b9350612249818560208601612207565b61225281612215565b840191505092915050565b5f6020820190508181035f8301526122758184612225565b905092915050565b5f80fd5b7f4e487b71000000000000000000000000000000000000000000000000000000005f52604160045260245ffd5b6122b782612215565b810181811067ffffffffffffffff821117156122d6576122d5612281565b5b80604052505050565b5f6122e861200b565b90506122f482826122ae565b919050565b5f67ffffffffffffffff82111561231357612312612281565b5b602082029050602081019050919050565b5f80fd5b5f61233a612335846122f9565b6122df565b9050808382526020820190506020840283018581111561235d5761235c612324565b5b835b8181101561238657806123728882612095565b84526020840193505060208101905061235f565b5050509392505050565b5f82601f8301126123a4576123a361227d565b5b81356123b4848260208601612328565b91505092915050565b5f80fd5b5f67ffffffffffffffff8211156123db576123da612281565b5b6123e482612215565b9050602081019050919050565b828183375f83830152505050565b5f61241161240c846123c1565b6122df565b90508281526020810184848401111561242d5761242c6123bd565b5b6124388482856123f1565b509392505050565b5f82601f8301126124545761245361227d565b5b81356124648482602086016123ff565b91505092915050565b5f805f805f60a0868803121561248657612485612014565b5b5f61249388828901612062565b95505060206124a488828901612062565b945050604086013567ffffffffffffffff8111156124c5576124c4612018565b5b6124d188828901612390565b935050606086013567ffffffffffffffff8111156124f2576124f1612018565b5b6124fe88828901612390565b925050608086013567ffffffffffffffff81111561251f5761251e612018565b5b61252b88828901612440565b9150509295509295909350565b5f67ffffffffffffffff82111561255257612551612281565b5b602082029050602081019050919050565b5f61257561257084612538565b6122df565b9050808382526020820190506020840283018581111561259857612597612324565b5b835b818110156125c157806125ad8882612062565b84526020840193505060208101905061259a565b5050509392505050565b5f82601f8301126125df576125de61227d565b5b81356125ef848260208601612563565b91505092915050565b5f806040838503121561260e5761260d612014565b5b5f83013567ffffffffffffffff81111561262b5761262a612018565b5b612637858286016125cb565b925050602083013567ffffffffffffffff81111561265857612657612018565b5b61266485828601612390565b9150509250929050565b5f81519050919050565b5f82825260208201905092915050565b5f819050602082019050919050565b6126a081612076565b82525050565b5f6126b18383612697565b60208301905092915050565b5f602082019050919050565b5f6126d38261266e565b6126dd8185612678565b93506126e883612688565b805f5b838110156127185781516126ff88826126a6565b975061270a836126bd565b9250506001810190506126eb565b5085935050505092915050565b5f6020820190508181035f83015261273d81846126c9565b905092915050565b5f819050919050565b5f61276861276361275e8461201c565b612745565b61201c565b9050919050565b5f6127798261274e565b9050919050565b5f61278a8261276f565b9050919050565b61279a81612780565b82525050565b5f6020820190506127b35f830184612791565b92915050565b6127c28161203b565b82525050565b5f6020820190506127db5f8301846127b9565b92915050565b6127ea8161218f565b81146127f4575f80fd5b50565b5f81359050612805816127e1565b92915050565b5f806040838503121561282157612820612014565b5b5f61282e85828601612062565b925050602061283f858286016127f7565b9150509250929050565b5f806040838503121561285f5761285e612014565b5b5f61286c85828601612095565b925050602061287d85828601612095565b9150509250929050565b5f6128918261276f565b9050919050565b6128a181612887565b82525050565b5f6020820190506128ba5f830184612898565b92915050565b5f80604083850312156128d6576128d5612014565b5b5f6128e385828601612062565b92505060206128f485828601612062565b9150509250929050565b5f805f805f60a0868803121561291757612916612014565b5b5f61292488828901612062565b955050602061293588828901612062565b945050604061294688828901612095565b935050606061295788828901612095565b925050608086013567ffffffffffffffff81111561297857612977612018565b5b61298488828901612440565b9150509295509295909350565b5f602082840312156129a6576129a5612014565b5b5f6129b384828501612062565b91505092915050565b7f4e487b71000000000000000000000000000000000000000000000000000000005f52602260045260245ffd5b5f6002820490506001821680612a0057607f821691505b602082108103612a1357612a126129bc565b5b50919050565b5f604082019050612a2c5f8301856127b9565b612a3960208301846127b9565b9392505050565b5f604082019050612a535f8301856120e7565b612a6060208301846120e7565b9392505050565b7f4e487b71000000000000000000000000000000000000000000000000000000005f52603260045260245ffd5b7f4d61726b657420616c7265616479207265736f6c7665640000000000000000005f82015250565b5f612ac86017836121f7565b9150612ad382612a94565b602082019050919050565b5f6020820190508181035f830152612af581612abc565b9050919050565b7f496e76616c6964206f7574636f6d6520696e64657800000000000000000000005f82015250565b5f612b306015836121f7565b9150612b3b82612afc565b602082019050919050565b5f6020820190508181035f830152612b5d81612b24565b9050919050565b7f4e487b71000000000000000000000000000000000000000000000000000000005f52601160045260245ffd5b5f612b9b82612076565b9150612ba683612076565b9250828203905081811115612bbe57612bbd612b64565b5b92915050565b5f612bce82612076565b9150612bd983612076565b9250828201905080821115612bf157612bf0612b64565b5b92915050565b5f612c0182612076565b9150612c0c83612076565b9250828202612c1a81612076565b91508282048414831517612c3157612c30612b64565b5b5092915050565b7f4e487b71000000000000000000000000000000000000000000000000000000005f52601260045260245ffd5b5f612c6f82612076565b9150612c7a83612076565b925082612c8a57612c89612c38565b5b828204905092915050565b7f4d61726b6574206e6f7420796574207265736f6c7665640000000000000000005f82015250565b5f612cc96017836121f7565b9150612cd482612c95565b602082019050919050565b5f6020820190508181035f830152612cf681612cbd565b9050919050565b7f4e6f2077696e6e696e672073686172657320746f2072656465656d00000000005f82015250565b5f612d31601b836121f7565b9150612d3c82612cfd565b602082019050919050565b5f6020820190508181035f830152612d5e81612d25565b9050919050565b5f81519050612d738161207f565b92915050565b5f60208284031215612d8e57612d8d612014565b5b5f612d9b84828501612d65565b91505092915050565b5f604082019050612db75f8301856127b9565b612dc460208301846120e7565b9392505050565b5f81519050612dd9816127e1565b92915050565b5f60208284031215612df457612df3612014565b5b5f612e0184828501612dcb565b91505092915050565b5f819050919050565b612e1c81612e0a565b82525050565b5f604082019050612e355f8301856127b9565b612e426020830184612e13565b9392505050565b7f4d61726b6574206973207265736f6c76656400000000000000000000000000005f82015250565b5f612e7d6012836121f7565b9150612e8882612e49565b602082019050919050565b5f6020820190508181035f830152612eaa81612e71565b9050919050565b7f55736572206e6f742072656769737465726564000000000000000000000000005f82015250565b5f612ee56013836121f7565b9150612ef082612eb1565b602082019050919050565b5f6020820190508181035f830152612f1281612ed9565b9050919050565b7f416d6f756e74206d75737420626520706f7369746976650000000000000000005f82015250565b5f612f4d6017836121f7565b9150612f5882612f19565b602082019050919050565b5f6020820190508181035f830152612f7a81612f41565b9050919050565b5f606082019050612f945f8301866127b9565b612fa160208301856127b9565b612fae60408301846120e7565b949350505050565b5f608082019050612fc95f8301876127b9565b612fd660208301866120e7565b612fe360408301856120e7565b612ff060608301846120e7565b95945050505050565b5f6040820190508181035f83015261301181856126c9565b9050818103602083015261302581846126c9565b90509392505050565b5f81519050919050565b5f82825260208201905092915050565b5f6130528261302e565b61305c8185613038565b935061306c818560208601612207565b61307581612215565b840191505092915050565b5f60a0820190506130935f8301886127b9565b6130a060208301876127b9565b6130ad60408301866120e7565b6130ba60608301856120e7565b81810360808301526130cc8184613048565b90509695505050505050565b5f815190506130e68161213a565b92915050565b5f6020828403121561310157613100612014565b5b5f61310e848285016130d8565b91505092915050565b5f60a08201905061312a5f8301886127b9565b61313760208301876127b9565b818103604083015261314981866126c9565b9050818103606083015261315d81856126c9565b905081810360808301526131718184613048565b9050969550505050505056fea26469706673582212206f03dad6eae2541c0e75f62d018cecce089795713773dfc0ebf58da475b2499e64736f6c634300081a0033a26469706673582212200eef78369bf1c648b84ef7757b28e007f5d4a64e1aa260cd4d6a76b9757e254764736f6c634300081a0033",
    "linkReferences": {}
  },
  "methodIdentifiers": {
    "allMarkets(uint256)": "52d84d1e",
    "collateralToken()": "b2016bd4",
    "createMarket(string)": "54888f55",
    "marketCount()": "ec979082",
    "owner()": "8da5cb5b",
    "renounceOwnership()": "715018a6",
    "reputationManager()": "6b868afb",
    "transferOwnership(address)": "f2fde38b"
  },
  "id": 35
}