{"abi":[{"type":"constructor","inputs":[],"stateMutability":"nonpayable"},{"type":"function","name":"authorizedUpdaters","inputs":[{"name":"","type":"address","internalType":"address"}],"outputs":[{"name":"","type":"bool","internalType":"bool"}],"stateMutability":"view"},{"type":"function","name":"isUserRegistered","inputs":[{"name":"_user","type":"address","internalType":"address"}],"outputs":[{"name":"","type":"bool","internalType":"bool"}],"stateMutability":"view"},{"type":"function","name":"owner","inputs":[],"outputs":[{"name":"","type":"address","internalType":"address"}],"stateMutability":"view"},{"type":"function","name":"registerUser","inputs":[],"outputs":[],"stateMutability":"nonpayable"},{"type":"function","name":"renounceOwnership","inputs":[],"outputs":[],"stateMutability":"nonpayable"},{"type":"function","name":"reputationScores","inputs":[{"name":"","type":"address","internalType":"address"}],"outputs":[{"name":"","type":"int256","internalType":"int256"}],"stateMutability":"view"},{"type":"function","name":"setAuthorizedUpdater","inputs":[{"name":"_updater","type":"address","internalType":"address"},{"name":"_isAuthorized","type":"bool","internalType":"bool"}],"outputs":[],"stateMutability":"nonpayable"},{"type":"function","name":"transferOwnership","inputs":[{"name":"newOwner","type":"address","internalType":"address"}],"outputs":[],"stateMutability":"nonpayable"},{"type":"function","name":"updateReputation","inputs":[{"name":"_user","type":"address","internalType":"address"},{"name":"_scoreChange","type":"int256","internalType":"int256"}],"outputs":[],"stateMutability":"nonpayable"},{"type":"event","name":"OwnershipTransferred","inputs":[{"name":"previousOwner","type":"address","indexed":true,"internalType":"address"},{"name":"newOwner","type":"address","indexed":true,"internalType":"address"}],"anonymous":false},{"type":"event","name":"ReputationUpdated","inputs":[{"name":"user","type":"address","indexed":true,"internalType":"address"},{"name":"newScore","type":"int256","indexed":false,"internalType":"int256"},{"name":"change","type":"int256","indexed":false,"internalType":"int256"}],"anonymous":false},{"type":"event","name":"UpdaterAuthorized","inputs":[{"name":"updater","type":"address","indexed":true,"internalType":"address"},{"name":"isAuthorized","type":"bool","indexed":false,"internalType":"bool"}],"anonymous":false},{"type":"event","name":"UserRegistered","inputs":[{"name":"user","type":"address","indexed":true,"internalType":"address"}],"anonymous":false},{"type":"error","name":"OwnableInvalidOwner","inputs":[{"name":"owner","type":"address","internalType":"address"}]},{"type":"error","name":"OwnableUnauthorizedAccount","inputs":[{"name":"account","type":"address","internalType":"address"}]}],"bytecode":{"object":"0x608060405234801561000f575f80fd5b50335f73ffffffffffffffffffffffffffffffffffffffff168173ffffffffffffffffffffffffffffffffffffffff1603610081575f6040517f1e4fbdf70000000000000000000000000000000000000000000000000000000081526004016100789190610196565b60405180910390fd5b6100908161009660201b60201c565b506101af565b5f805f9054906101000a900473ffffffffffffffffffffffffffffffffffffffff169050815f806101000a81548173ffffffffffffffffffffffffffffffffffffffff021916908373ffffffffffffffffffffffffffffffffffffffff1602179055508173ffffffffffffffffffffffffffffffffffffffff168173ffffffffffffffffffffffffffffffffffffffff167f8be0079c531659141344cd1fd0a4f28419497f9722a3daafe3b4186f6b6457e060405160405180910390a35050565b5f73ffffffffffffffffffffffffffffffffffffffff82169050919050565b5f61018082610157565b9050919050565b61019081610176565b82525050565b5f6020820190506101a95f830184610187565b92915050565b610cb4806101bc5f395ff3fe608060405234801561000f575f80fd5b5060043610610091575f3560e01c80638da5cb5b116100645780638da5cb5b146100f55780638ff29cfe1461011357806399fc65d414610143578063f2fde38b1461015f578063fe0438b21461017b57610091565b8063163f7522146100955780634d3820eb146100c55780636a08b511146100cf578063715018a6146100eb575b5f80fd5b6100af60048036038101906100aa91906108a8565b6101ab565b6040516100bc91906108ed565b60405180910390f35b6100cd6101fd565b005b6100e960048036038101906100e49190610939565b610363565b005b6100f361055d565b005b6100fd610570565b60405161010a9190610986565b60405180910390f35b61012d600480360381019061012891906108a8565b610597565b60405161013a91906108ed565b60405180910390f35b61015d600480360381019061015891906109c9565b6105b4565b005b610179600480360381019061017491906108a8565b610662565b005b610195600480360381019061019091906108a8565b6106e6565b6040516101a29190610a16565b60405180910390f35b5f60025f8373ffffffffffffffffffffffffffffffffffffffff1673ffffffffffffffffffffffffffffffffffffffff1681526020019081526020015f205f9054906101000a900460ff169050919050565b60025f3373ffffffffffffffffffffffffffffffffffffffff1673ffffffffffffffffffffffffffffffffffffffff1681526020019081526020015f205f9054906101000a900460ff1615610287576040517f08c379a000000000000000000000000000000000000000000000000000000000815260040161027e90610aaf565b60405180910390fd5b600160025f3373ffffffffffffffffffffffffffffffffffffffff1673ffffffffffffffffffffffffffffffffffffffff1681526020019081526020015f205f6101000a81548160ff0219169083151502179055505f60015f3373ffffffffffffffffffffffffffffffffffffffff1673ffffffffffffffffffffffffffffffffffffffff1681526020019081526020015f20819055503373ffffffffffffffffffffffffffffffffffffffff167f54db7a5cb4735e1aac1f53db512d3390390bb6637bd30ad4bf9fc98667d9b9b960405160405180910390a2565b60035f3373ffffffffffffffffffffffffffffffffffffffff1673ffffffffffffffffffffffffffffffffffffffff1681526020019081526020015f205f9054906101000a900460ff166103ec576040517f08c379a00000000000000000000000000000000000000000000000000000000081526004016103e390610b3d565b60405180910390fd5b60025f8373ffffffffffffffffffffffffffffffffffffffff1673ffffffffffffffffffffffffffffffffffffffff1681526020019081526020015f205f9054906101000a900460ff16610475576040517f08c379a000000000000000000000000000000000000000000000000000000000815260040161046c90610bcb565b60405180910390fd5b5f60015f8473ffffffffffffffffffffffffffffffffffffffff1673ffffffffffffffffffffffffffffffffffffffff1681526020019081526020015f205490505f82826104c39190610c16565b90508060015f8673ffffffffffffffffffffffffffffffffffffffff1673ffffffffffffffffffffffffffffffffffffffff1681526020019081526020015f20819055508373ffffffffffffffffffffffffffffffffffffffff167f16d27e2cff7b6c62796ec35e40b30e11f94675cc9fded1762c7c11aaa15cb220828560405161054f929190610c57565b60405180910390a250505050565b6105656106fb565b61056e5f610782565b565b5f805f9054906101000a900473ffffffffffffffffffffffffffffffffffffffff16905090565b6003602052805f5260405f205f915054906101000a900460ff1681565b6105bc6106fb565b8060035f8473ffffffffffffffffffffffffffffffffffffffff1673ffffffffffffffffffffffffffffffffffffffff1681526020019081526020015f205f6101000a81548160ff0219169083151502179055508173ffffffffffffffffffffffffffffffffffffffff167f5c001b1d70af3e0a09eed53bc0588d57fec6d23196319ba29c6313eb3321273c8260405161065691906108ed565b60405180910390a25050565b61066a6106fb565b5f73ffffffffffffffffffffffffffffffffffffffff168173ffffffffffffffffffffffffffffffffffffffff16036106da575f6040517f1e4fbdf70000000000000000000000000000000000000000000000000000000081526004016106d19190610986565b60405180910390fd5b6106e381610782565b50565b6001602052805f5260405f205f915090505481565b610703610843565b73ffffffffffffffffffffffffffffffffffffffff16610721610570565b73ffffffffffffffffffffffffffffffffffffffff161461078057610744610843565b6040517f118cdaa70000000000000000000000000000000000000000000000000000000081526004016107779190610986565b60405180910390fd5b565b5f805f9054906101000a900473ffffffffffffffffffffffffffffffffffffffff169050815f806101000a81548173ffffffffffffffffffffffffffffffffffffffff021916908373ffffffffffffffffffffffffffffffffffffffff1602179055508173ffffffffffffffffffffffffffffffffffffffff168173ffffffffffffffffffffffffffffffffffffffff167f8be0079c531659141344cd1fd0a4f28419497f9722a3daafe3b4186f6b6457e060405160405180910390a35050565b5f33905090565b5f80fd5b5f73ffffffffffffffffffffffffffffffffffffffff82169050919050565b5f6108778261084e565b9050919050565b6108878161086d565b8114610891575f80fd5b50565b5f813590506108a28161087e565b92915050565b5f602082840312156108bd576108bc61084a565b5b5f6108ca84828501610894565b91505092915050565b5f8115159050919050565b6108e7816108d3565b82525050565b5f6020820190506109005f8301846108de565b92915050565b5f819050919050565b61091881610906565b8114610922575f80fd5b50565b5f813590506109338161090f565b92915050565b5f806040838503121561094f5761094e61084a565b5b5f61095c85828601610894565b925050602061096d85828601610925565b9150509250929050565b6109808161086d565b82525050565b5f6020820190506109995f830184610977565b92915050565b6109a8816108d3565b81146109b2575f80fd5b50565b5f813590506109c38161099f565b92915050565b5f80604083850312156109df576109de61084a565b5b5f6109ec85828601610894565b92505060206109fd858286016109b5565b9150509250929050565b610a1081610906565b82525050565b5f602082019050610a295f830184610a07565b92915050565b5f82825260208201905092915050565b7f52657075746174696f6e4d616e616765723a205573657220616c7265616479205f8201527f7265676973746572656400000000000000000000000000000000000000000000602082015250565b5f610a99602a83610a2f565b9150610aa482610a3f565b604082019050919050565b5f6020820190508181035f830152610ac681610a8d565b9050919050565b7f52657075746174696f6e4d616e616765723a2043616c6c6572206973206e6f745f8201527f20616e20617574686f72697a6564207570646174657200000000000000000000602082015250565b5f610b27603683610a2f565b9150610b3282610acd565b604082019050919050565b5f6020820190508181035f830152610b5481610b1b565b9050919050565b7f52657075746174696f6e4d616e616765723a2055736572206973206e6f7420725f8201527f6567697374657265640000000000000000000000000000000000000000000000602082015250565b5f610bb5602983610a2f565b9150610bc082610b5b565b604082019050919050565b5f6020820190508181035f830152610be281610ba9565b9050919050565b7f4e487b71000000000000000000000000000000000000000000000000000000005f52601160045260245ffd5b5f610c2082610906565b9150610c2b83610906565b92508282019050828112155f8312168382125f841215161715610c5157610c50610be9565b5b92915050565b5f604082019050610c6a5f830185610a07565b610c776020830184610a07565b939250505056fea264697066735822122015efb7eea343d65fafb774eda528a1694bc93bc9ce3db346d4d0309eba7bb0e064736f6c634300081a0033","linkReferences":{}},"methodIdentifiers":{"authorizedUpdaters(address)":"8ff29cfe","isUserRegistered(address)":"163f7522","owner()":"8da5cb5b","registerUser()":"4d3820eb","renounceOwnership()":"715018a6","reputationScores(address)":"fe0438b2","setAuthorizedUpdater(address,bool)":"99fc65d4","transferOwnership(address)":"f2fde38b","updateReputation(address,int256)":"6a08b511"},"id":36}